:020000040800F2
:10000000A8380020A56E0008D5040008AFB4000889
:10001000D7040008DB040008DF040008000000002B
:10002000000000000000000000000000E3040008E1
:10003000E50400080000000037B400084B04000885
:10004000BF6E0008BF6E0008BF6E0008BF6E0008DC
:10005000BF6E0008BF6E0008192A00082B2A00088E
:100060003D2A00084F2A0008612A0008BF6E0008D8
:10007000CB150008B9150008F9140008E7140008AA
:100080006515000853150008BF6E0008E904000854
:10009000E7040008BF6E0008BF6E0008732A00085E
:1000A000BF6E0008BF6E0008BF6E0008BF6E00087C
:1000B000BF6E0008BF6E0008BF6E0008BF6E00086C
:1000C000BF6E0008BF6E0008BF6E0008AD210008BB
:1000D000BF6E0008D5140008131500087915000834
:1000E000C92A0008BF6E0008BF6E0008BF6E000876
:1000F000BF6E0008BF6E0008BF6E0008BF6E00082C
:10010000BF6E0008BF6E0008BF6E0008BF6E00081B
:10011000DD15000841160008BF6E0008BF6E00081C
:10012000BF6E0008BF6E00081D1600082F160008DD
:1001300000F002F800F06DF80AA090E8000C82448C
:100140008344AAF10107DA4501D100F062F8AFF269
:10015000090EBAE80F0013F0010F18BFFB1A43F0A5
:100160000103184760600100806001000A444FF0FD
:10017000000C10F8013B13F0070408BF10F8014B06
:100180001D1108BF10F8015B641E05D010F8016B4B
:10019000641E01F8016BF9D113F0080F1EBF10F8AF
:1001A000014BAD1C0C1B09D16D1E58BF01F801CBD2
:1001B000FAD505E014F8016B01F8016B6D1EF9D555
:1001C0009142D6D37047000000230024002500266A
:1001D000103A28BF78C1FBD8520728BF30C148BFAA
:1001E0000B607047662914F03684002070471FB5F5
:1001F00012F0C0FF04000020002113F035FD401C68
:1002000060600020002113F019FDE0601FBD10B5F3
:1002100010BD13F0FBF81146FFF7E9FF00F05DF8A1
:1002200013F027F903B4FFF7F2FF03BC13F028F92A
:10023000002804D090FAA0F0B0FA80F0401C70477B
:1002400010B5044606F096FE02F041FE10BD1CB546
:10025000142008210B020022CDE90010AFF21F018B
:1002600009A00AF0ECF9044614B120460AF091F90D
:1002700000F084F900F02BFC01F0BAFF02F052F913
:1002800001F07AFE00201CBD696E69740000000058
:1002900004460D4614A008F0D8FF21461CA008F023
:1002A000D4FF29461FA008F0D0FF00BFFEE710B51D
:1002B00000F0D3F808F0FCFF1F49204809F084F94A
:1002C00009F00AFF0AF06CFD0AF076FDFFF7BFFFA8
:1002D00007F054F809F01CFF10BD10B50BF094F8AE
:1002E000FFF7E5FF002010BD0A0D2057726F6E6703
:1002F00020706172616D657465722076616C7565E0
:10030000206465746563746564206F6E0D0A000077
:100310002020202020202066696C65202025730D78
:100320000A000000202020202020206C696E65201B
:100330002025640D0A00000000000120A8380020DC
:10034000704770471CB5044621461FA008F07DFF8A
:1003500014F0010F19D02148006818B120A008F04E
:1003600074FF12E001201E21C3020022CDE900101B
:10037000234924A00AF063F9184908600846006878
:1003800018B1084600680AF004F914F0020F19D0F9
:100390001E48006818B11EA008F057FF12E00120A7
:1003A0001E21C3020022CDE90010214921A00AF03C
:1003B00046F9164908600846006818B10846006802
:1003C0000AF0E7F81CBD0000617267206973203AEB
:1003D0002030782530325820000000000400002032
:1003E00066737277315F74687265616420616C72E4
:1003F0006561647920657869737473210D0A000062
:100400004103000866737277310000000800002085
:1004100066737277325F74687265616420616C72B2
:100420006561647920657869737473210D0A000031
:1004300043030008667372773200000010B5002194
:100440004FF0006006F0A5FC10BD10B508F00AFBE7
:1004500006F057FD08F01DFB10BD70B5FFF7EEFF6D
:10046000174800684FF47A72B0FBF2F1481EB0F101
:10047000807F00D319E0481E4FF0E02250615017F2
:100480000F22002806DA13010E4C00F00F052D1F75
:10049000635502E013010C4C235400BF00204FF0C1
:1004A000E02290610720106100BF02F082FA01F0A3
:1004B0008DF906A008F041FF06F052FD70BD000066
:1004C000E005002018ED00E000E400E075617274C2
:1004D00031000000704700BFFEE700BFFEE700BF2D
:1004E000FEE77047704770477047000008B501216C
:1004F000102003F0E4FB10208DF8030003208DF89A
:1005000002004FF40050ADF8000069463F4804F087
:10051000B5FB4FF400513D4804F08DFD08BD10B50A
:1005200004462CB94FF40051384804F0AFFD00E008
:1005300000BF00BF10BD10B504462CB94FF40051E8
:10054000324804F078FD00E000BF00BF10BD022477
:10055000002120460BF090F80FE0002120460BF020
:100560009EF84FF4FA700AF0BDF9012120460BF015
:1005700096F84FF4FA700AF0B5F9EEE71FB50220CD
:1005800014210202224BCDE90032CDE902100023F2
:10059000204A21A1214809F0A2FF04462CB91F4896
:1005A00009F0F7FF002004B010BD1DA008F04DFEBB
:1005B0004FF0FF30F7E770B505460C461F4800784E
:1005C00020B9FFF793FF01201C4908706DB914B1E1
:1005D000012C08D103E00020FFF7ADFF04E000206C
:1005E000FFF79DFF00E000BF00BF012D0DD114B14A
:1005F000012C08D103E00120FFF79DFF04E001205A
:10060000FFF78DFF00E000BF00BF70BD001001408C
:10061000AC0700204F0500086C656400AC090020A1
:100620006C656420746872656164207374617274AF
:100630007570206661696C65642100000C00002003
:100640004FF0E02252694FF47A73B2FBF3F2504359
:100650004FF0E022916900BF4FF0E02292698A1AC0
:100660008242F9D3704708B50121102003F027FB1F
:100670001020ADF800008DF8030003208DF8020073
:100680006946FC4804F0FAFA1021FA4804F0D3FC59
:1006900008BD08B51020ADF8000048208DF8030013
:1006A0006946F44804F0EAFA08BD08B51020ADF830
:1006B00000008DF8030003208DF802006946ED4824
:1006C00004F0DCFA08BD10B5FFF7EFFF1021E94890
:1006D00004F0DCFC40F2EE20FFF7B2FF1021E54809
:1006E00004F0A9FC0F20FFF7ABFF10BD10B50024EC
:1006F000FFF7CFFF04E0601CC4B20120FFF7A0FFAA
:100700001021DC4804F07FFB08B1C82CF3DBC82CB7
:1007100001DB012010BD002404E0601CC4B20120F4
:10072000FFF78EFF1021D34804F06DFB08B9F02CC1
:10073000F3DBF02C01DB0120ECE70020EAE710B549
:10074000FFF7B3FF1021CB4804F0A0FC0220FFF715
:1007500077FF1021C74804F06EFCFFF79AFF0C20CA
:10076000FFF76EFF1021C34804F04DFB08B10124D0
:1007700000E000243220FFF763FF204610BD70B573
:10078000002400251FE06006040EFFF78EFF1021F5
:10079000B84804F07BFC0220FFF752FF1021B54857
:1007A00004F049FCFFF775FF0C20FFF749FF10210B
:1007B000B04804F028FB08B144F001043220FFF7F0
:1007C0003FFF681CC5B2022DDDDB204670BD70B551
:1007D0000026002408E0FFF7B2FF054605FA04F002
:1007E0003043C6B2601CC4B2082CF4DB304670BD86
:1007F00010B50446FFF759FF74B110219D4804F06D
:1008000045FC0220FFF71CFF10219A4804F013FC5E
:100810003C20FFF715FF0DE01021964804F036FC50
:100820003C20FFF70DFF1021924804F004FC022049
:10083000FFF706FF10BD70B50446FFF736FF002531
:1008400022E004F00106641076B11021894804F01A
:100850001DFC0220FFF7F4FE1021864804F0EBFB9C
:100860003C20FFF7EDFE0DE01021824804F00EFC65
:100870003C20FFF7E5FE10217E4804F0DCFB02205F
:10088000FFF7DEFE681CC5B2082DDADB70BD10B5BF
:10089000FFF7E9FEFFF717FFFFF728FF10BD2DE96F
:1008A000F84FFFF710FFFFF721FFCC20FFF7C3FF42
:1008B0004420FFF7C0FFFFF706FFFFF717FFCC202C
:1008C000FFF7B9FFBE20FFF7B6FFFFF780FF8146B5
:1008D000FFF77DFF0446072C15DD09EB04200FFA16
:1008E00080FA6FEA0A0013F03FFF8346584613F080
:1008F000EBFD07460022604B13F0FEFB054613F0AC
:10090000C9F983460FE009EB042013F02DFF009096
:1009100013F0DAFD05460022584B13F0EDFB0746B5
:1009200013F0B8F983465846BDE8F88F2DE9F04F2B
:1009300093B00027BA46002600BFFFF7C4FE4FF46D
:10094000F070FFF77DFEF020FFF775FF00246DE0EB
:10095000002600255FE0FFF712FF814609F003093A
:100960007610B9F1010F08D10020FFF741FF0020F8
:1009700005EBC40101AA50544BE0B9F1020F0AD1B2
:1009800046F080060120FFF733FF012005EBC4018C
:1009900001AA50543DE0B9F1000F3AD105EBC40073
:1009A000401C00F0FF0811A8C05D40450EDA002091
:1009B000FFF71EFF002005EBC40101AA5054781C6C
:1009C000C0B2074611A901F8008022E011A8C05D5D
:1009D00040450EDD05EBC40001A9085C00F00100F4
:1009E00046EAC01605EBC40101AA505CFFF700FF00
:1009F0000FE011A8C05D40450BD146F080060120F4
:100A0000FFF7F6FE012005EBC40101AA5054781E41
:100A1000C7B2681CC5B2082D9DDBB3465E461848B8
:100A200000EBCA0000F804B0601CC4B2082C8FDBD5
:100A30000AF1010000F0FF0A9DF8450018B1BAF173
:100A4000080FFFF67AAF0F4880F800A013B0BDE89A
:100A5000F08F1CB5002404E00BA008F0F6FB601C2E
:100A6000C4B2FFF714FF08B1052CF5DB052C1ADA28
:100A700016E00000001001400000B0BF0000B03FD1
:100A80002C0A002014000020445331384232302018
:100A9000636865636B206661696C64210D0A000000
:100AA0001AA008F0D2FB11E00020FFF7F8FE07467D
:100AB000384613F009FD05462A460B4619A168463B
:100AC00011F074FE40F6B83009F00CFFECE71FB5EA
:100AD0000F2011214FF40072144BCDE90032CDE903
:100AE00002100023124A13A1144809F0F8FC04462E
:100AF0002CB9124809F04DFD002004B010BD10A023
:100B000008F0A3FB4FF0FF30F7E700004453313803
:100B100042323020636865636B20726561647921BD
:100B20000D0A0000252E3266000000006C0A00202D
:100B3000530A000864733138623230006C0C0020B4
:100B40006473313862323020746872656164207376
:100B5000746172747570206661696C65642100004F
:100B600010B502460020002305E014780444E0B2EA
:100B7000521C5C1CE3B28B42F7DB10BD10B50A4679
:100B8000002143781B04847843EA0423047843EA71
:100B90000401B1F5000F01DB41F07F41116010BD90
:100BA0002DE9F84F04468946002000906946601CF4
:100BB000FFF7E4FF009813F0D7FD824613F084FCA2
:100BC00007460022DB4B13F03FF9054613F062F8AD
:100BD000C9F80000BDE8F88F2DE9FC5F82468B461E
:100BE0000020019001A90AF10100FFF7C7FF019859
:100BF00013F0BAFD0546D04913F0E2FD04464FF06C
:100C0000964113F0EFFCCBF8000001A90AF10400B3
:100C1000FFF7B4FF019813F0A7FD009013F054FC08
:100C20008046C64AC64B13F067FA06460022C54BFB
:100C300013F00AF9044613F02DF8CBF8040001A9CB
:100C40000AF10700FFF79AFF019813F08DFD0646A1
:100C5000BD4913F0B5FD05464FF0964113F0C2FCB7
:100C60000446BA4913F082FECBF808009AF80A004D
:100C70008BF80C00BDE8FC9F2DE9FC5F044689461B
:100C80000020019001A9601CFFF778FF019813F084
:100C90006BFD0646A84913F093FD05464FF09641BB
:100CA00013F0A0FCC9F8000001A9201DFFF766FFA2
:100CB000019813F059FD0546A54913F093FCC9F8B6
:100CC000040001A9E01DFFF759FF019813F04CFD46
:100CD000A049009013F074FD83464FF0964113F045
:100CE00081FC824613F0F0FB07464FF033329A4BFB
:100CF00013F000FB054612F0CDFFC9F80800A07AFA
:100D000089F80C00BDE8FC9F70B504460E4694F8C7
:100D10002000B8B994F82300B04201D0002070BD83
:100D2000012004F8200F002060706178A4F12004F5
:100D300004F12500465494F8210000F1010084F8E4
:100D4000210060E094F8200001285CD194F8211083
:100D500004F12500465414F8210F401C207020781F
:100D6000E178A4F1210488424DDB94F8220078B99F
:100D700094F82400801EC1B204F12600FFF7F0FEB3
:100D800094F82410491E04F12502515C884203D0D6
:100D900094F8220001280ED194F8242004F12501B2
:100DA00004F1650007F0EBFE204606F086FC00200B
:100DB00084F82000B3E7012509E004F12500405D37
:100DC00094F82310884200D105E0681CC5B294F85D
:100DD0002400A842F1DC00BF94F82400A84205D109
:100DE000002084F8200084F8210098E794F824007B
:100DF000421B04F12500411907F0C1FE94F82100BF
:100E0000401B84F82100002089E770B506460C4697
:100E100094F8243094F8211004F125000A180021D8
:100E2000304606F092F914F8211F0844207020780B
:100E3000E178A4F12104884278DB94F8210094F849
:100E40002410451A5CE004F12500405D94F823105D
:100E5000884253D194F8220090B994F82420921E2D
:100E6000D1B204F125022A44501CFFF779FE94F810
:100E700024102944491E04F12502515C884203D004
:100E800094F82200012821D194F8242004F12500AF
:100E90004119403007F073FE94F82100401B94F88C
:100EA0002430C21A04F125002844C11804F1250099
:100EB00007F065FE204606F000FC14F8210F401BE9
:100EC000E178401A04F82109002070BD94F821004F
:100ED000401B94F82430C21A04F125002844C1189C
:100EE00004F1250007F04BFE14F8210F401BE178B8
:100EF000401A04F821094FF0FF30E6E7681E05B2FA
:100F0000002DA0DA94F8210094F82430C31A04F1DB
:100F100025001844411C94F82400421E04F12500C9
:100F200007F02DFE94F8240084F821004FF0FF30E4
:100F3000CBE700007691FC4000401C45535C55F621
:100F40005D11F03F0000594000007A430000484224
:100F50000000C8420000FA43331371407FB50546D4
:100F60000C4625B95522FA49FAA008F051FA24B9DD
:100F70005622F749FCA008F04BFAEE6B206800906F
:100F8000207900F00F00082803D10020ADF80400FC
:100F900008E0207900F00F00092803D14FF48050B9
:100FA000ADF804002079C0F3011018B90020ADF8A5
:100FB000060007E02079C0F30110012802D14003A8
:100FC000ADF806002079C0F3811018B90020ADF803
:100FD000080011E02079C0F38110012804D14FF4FA
:100FE000C060ADF8080007E02079C0F38110022846
:100FF00002D14002ADF808000020ADF80C000C2032
:10100000ADF80A006946306804F04BFB01213068F6
:1010100004F08BFC002004B070BD70B58CB00546A8
:10102000EC6BEE6CA86CC0F38F21E161012240F201
:101030002441206804F0A6FC0121084602F014FEB9
:101040000121022002F010FE288B10F4006F31D035
:10105000E06805F0ADF92068001D0190306802904D
:10106000102003900020049005908020069000201E
:101070000790089009904FF400500A9000200B90C0
:1010800001A9E06805F06BFA606905F013FD012223
:101090000221E06805F0A0FB607E8DF800000020D2
:1010A0008DF8010001208DF802008DF803006846DC
:1010B00005F01FFE288B10F4007F3DD0A06805F0DE
:1010C00077F92068001D019030680290002003909D
:1010D000A86CC0F38F20049000200590802006901B
:1010E0000020079008902020099000020A9000201C
:1010F0000B9001A9A06805F032FA206905F0DAFC2E
:1011000001220221A06805F067FB0122402120682E
:1011100004F0E1FC0121A06805F0F0FA207E8DF8D2
:10112000000000208DF8010001208DF802008DF8EC
:101130000300684605F0DDFD0CB070BD2DE9F041FF
:1011400005460E461746B84625B97F228A4981A032
:1011500008F05EF9EC6B032E2AD0102E13D0112E5E
:1011600033D194F9040000F01F0201219140834A19
:10117000430942F8231000BF002240F225512068A5
:1011800004F000FC21E094F9040000F01F020121AA
:10119000914042094FF0E02303EB8202C2F80011B4
:1011A00000BF012240F22551206804F0EBFB0CE067
:1011B000B8F5007F02D12846FFF72FFFB8F5006F82
:1011C00002D12846FFF729FF00BF00BF0020BDE87D
:1011D000F08170B505460E4625B9A32268495DA089
:1011E00008F016F9EC6B288B10F4806F16D020688D
:1011F000008810F0800F08D1012240F2266120689B
:1012000004F0C0FB4FF0FF3070BD206886800122E3
:1012100040F22661206804F0B5FB07E02068868074
:1012200000BF2068008810F0400FFAD00120EBE7E3
:1012300070B5044624B9BE22524946A008F0E8F829
:10124000E56B4FF0FF362868008810F0200F02D0C1
:1012500028688088C6B2304670BD2DE9F0418CB058
:1012600007460E4615469846FC6B24B9D0224649DF
:1012700046A008F0CDF81DB900200CB0BDE8F08103
:10128000B8F1010F03D0B8F1020F5FD139E0A068C7
:1012900005F08EF82068001D019002960020039052
:1012A000049505908020069000200790089020204B
:1012B000099000020A9000200B9001A9A06805F097
:1012C0004EF9206905F0F6FB01220221A06805F025
:1012D00083FA01224021206804F0FDFB0121A0686F
:1012E00005F00CFA207E8DF8000000208DF801003A
:1012F00001208DF802008DF80300684605F0F9FC26
:101300004DE0E06805F054F82068001D0190029659
:101310001020039004950020059080200690002066
:101320000790089009904FF400500A9000200B900D
:1013300001A9E06805F013F901228021206804F07A
:10134000CAFB0121E06805F0D9F928E026E0000099
:10135000704A010873657269616C20213D20525406
:101360005F4E554C4C00000063666720213D2052C3
:10137000545F4E554C4C0000804A010880E100E06B
:101380008E4A0108994A0108A44A010875617274DD
:1013900020213D2052545F4E554C4C0000BF00BFF1
:1013A00028466AE72DE9F0410546EC6B0AF02CF877
:1013B0008046A06805F0A1FAE1690E1A206A371A82
:1013C000266240460AF024F82FB1032040EA0721A4
:1013D00028460AF03DFE206804F0BFFC206905F0B5
:1013E00069FBBDE8F0812DE9F0410546EC6B0AF0A0
:1013F0000BF80746D4E907100E1A0021216238467F
:101400000AF006F82EB1032040EA062128460AF029
:101410001FFE206905F04EFBBDE8F08170B5044663
:10142000E56B09F0F1FF0646304609F0F1FF0421B3
:1014300020460AF00DFE286905F03CFB70BD70B532
:101440000546EC6B34B940F26512FE49AFF2C400B8
:1014500007F0DEFF40F22551206804F0C6FE68B1B7
:101460000121206804F032FE18B9012128460AF053
:10147000EFFD40F22551206804F041FF40F2244185
:10148000206804F0B2FE10B12846FFF78BFF40F24F
:101490002661206804F0A9FE90B1288B10F4806FBB
:1014A00003D0022128460AF0D3FD002240F2266133
:1014B000206804F067FA40F22661206804F01FFFFC
:1014C0000821206804F002FE012802D12846FFF717
:1014D000AFFE70BD10B507F0C5FADB48FFF7AFFFF0
:1014E00007F0D7FA10BD10B507F0BCFAD648FFF7E1
:1014F0007AFF07F0CEFA10BD10B507F0B3FAD24864
:10150000FFF78CFF4FF4805005F0D4FA07F0C1FAD2
:1015100010BD10B507F0A6FA40F22551CB4804F0F3
:1015200064FE80B10121C94804F0D0FD30B9C7483C
:10153000001D0088C1B2C648FFF7E6FB40F2255106
:10154000C24804F0DCFEC348FFF779FF07F0A1FAB8
:1015500010BD10B507F086FABE48FFF744FF07F04C
:1015600098FA10BD10B507F07DFA4FF4801005F021
:10157000A1FA07F08EFA10BD10B507F073FA40F229
:101580002551B54804F031FE80B10121B24804F084
:101590009DFD30B9B048001D0088C1B2AF48FFF7CB
:1015A000B3FB40F22551AC4804F0A9FEAC48FFF76C
:1015B00046FF07F06EFA10BD10B507F053FAA848C1
:1015C000FFF711FF07F065FA10BD10B507F04AFAF2
:1015D000102005F06FFA07F05CFA10BD10B507F0A7
:1015E00041FA40F225519F4804F0FFFD80B10121EE
:1015F0009C4804F06BFD30B99A48001D0088C1B2C8
:101600009948FFF781FB40F22551964804F077FE98
:101610009648FFF714FF07F03CFA10BD10B507F02D
:1016200021FA9248FFF7DFFE07F033FA10BD10B53C
:1016300007F018FA8E4805F03DFA07F02AFA10BDB7
:1016400010B507F00FFA40F225518A4804F0CDFD9D
:1016500078B10121874804F039FD28B98548808890
:10166000C1B28548FFF750FB40F22551814804F094
:1016700046FE8248FFF7E3FE07F00BFA10BD10B5F7
:101680000121052002F01BFB0121880302F017FB5A
:101690000121052002F013FB0121480402F038FB70
:1016A0000121092002F00BFB0121880402F030FB2C
:1016B0000121112002F003FB0121C80402F028FBE4
:1016C0000121312002F0FBFA0121080502F020FB84
:1016D00010BD08B502208DF8020004208DF803002B
:1016E0000002ADF800006946654803F0C7FA18200B
:1016F0008DF803004FF40070ADF8000069466048B3
:1017000003F0BCFA04208DF803000820ADF80000B7
:1017100069465B4803F0B2FA18208DF803000420F4
:10172000ADF800006946564803F0A8FA04208DF889
:1017300003004002ADF800006946524803F09EFAEB
:1017400018208DF803004FF48060ADF80000694662
:101750004C4803F093FA04208DF803004002ADF8E2
:1017600000006946484803F089FA18208DF8030004
:101770004FF48060ADF800006946434803F07EFAFC
:1017800004208DF80300ADF8000069463F4803F0DF
:1017900075FA18208DF803004FF48050ADF8000062
:1017A0006946394803F06AFA08BD38B5044620791D
:1017B0008DF8000000208DF8010001208DF8020056
:1017C0008DF80300684605F094FA38BD1CB5304921
:1017D00003C9CDE90001FFF752FFFFF77AFF2D4C57
:1017E0004FF4E12000902C48174908640846DDE9D1
:1017F0000012C0E911122046FFF7D7FF234640F63A
:10180000033226A110480AF0FAFB264C4FF4E130CF
:10181000009021480F4908640846DDE90012C0E93C
:1018200011122046FFF7C1FF234640F203721EA1AA
:1018300008480AF0E4FB1E4C4FF4E13000901648D3
:10184000074937E0B74A0108EC0C0020004400408B
:10185000B8020020400D0020004800401002002087
:10186000940D0020004C004018000020E80D0020DE
:101870000000011000500040C00000203C0E00207D
:1018800000080140000C014000100140001401401C
:10189000C04A0108080400205C4A0108756172749E
:1018A000310000002C0400207561727432000000C9
:1018B0005004002008640846DDE90012C0E9111256
:1018C0002046FFF772FF234640F2037218A11A4820
:1018D0000AF095FB194C4FF416400090184819492E
:1018E00008640846DDE90012C0E911122046FFF73E
:1018F0005CFF234640F2037213A112480AF07FFBFB
:10190000134C4FF4164000900D48124908640846E5
:10191000DDE90012C0E911122046FFF746FF234619
:1019200040F203520CA10B480AF069FB1CBD0000F9
:101930007561727433000000940D0020740400205F
:101940005C4A0108E80D00207561727434000000E3
:10195000980400203C0E0020756172743500000070
:10196000F8B504460E4600250020009001236A4683
:101970000021204605F0E9FB012801D0681EF8BDD2
:101980009DF800102648FFF7BFF90020F7E77CB567
:10199000054624A103C9CDE9000122A005F0FAFA09
:1019A00004461CB921A007F050FC7CBD40F2031195
:1019B000204605F05EFB18B126A007F046FCF4E7D0
:1019C0000DE04FF0FF31164805F0EBFD2A491448B1
:1019D0006530FFF751F90421284806F053F9F0E784
:1019E0007CB500231A4626A10D4805F05FFD05468B
:1019F0001DB127A007F029FC7CBD02200F21430266
:101A00000022CDE90010AFF2790129A008F017FEFD
:101A1000044614B1204608F0BCFD00BFECE700000E
:101A2000B8020020756172743200000055415254B2
:101A3000325F444154413A2063616E206E6F7420DE
:101A400066696E64206465766963653A20756172C3
:101A500074320A0075617274323A2063616E206ECE
:101A60006F74206F70656E206465766963653A20D7
:101A700075617274320A0000EF0E0020801700209A
:101A800075617274325F72785F73656D000000007B
:101A9000696E6974206D6573736167652071756522
:101AA0007565206661696C65642E0D0A0000000092
:101AB00055415254325F444154410000F8B5044648
:101AC0000E4600250020009001236A460021204692
:101AD00005F03BFB012801D0681EF8BD9DF8001001
:101AE0002648FFF711F90020F7E77CB5054624A149
:101AF00003C9CDE9000122A005F04CFA04461CB947
:101B000021A007F0A2FB7CBD40F20311204605F0A6
:101B1000B0FA18B126A007F098FBF4E70DE04FF0FB
:101B2000FF31164805F03DFD2A4914486530FFF79E
:101B3000A3F80821284806F0A5F8F0E77CB50023B3
:101B40001A4626A10D4805F0B1FC05461DB127A097
:101B500007F07BFB7CBD02200F2143020022CDE970
:101B60000010AFF2790129A008F069FD044614B114
:101B7000204608F00EFD00BFECE700001002002038
:101B8000756172743300000055415254335F444113
:101B900054413A2063616E206E6F742066696E64F2
:101BA000206465766963653A2075617274330A0052
:101BB00075617274333A2063616E206E6F74206FAA
:101BC00070656E206465766963653A20756172742C
:101BD000330A0000E20E0020801700207561727445
:101BE000335F72785F73656D00000000696E697421
:101BF000206D657373616765207175657565206615
:101C000061696C65642E0D0A000000005541525454
:101C1000335F444154410000F8B504460E460025A8
:101C20000020009001236A460021204605F08DFA2D
:101C3000012801D0681EF8BD9DF800102648FFF766
:101C400063F80020F7E77CB5054624A103C9CDE978
:101C5000000122A005F09EF904461CB921A007F05E
:101C6000F4FA7CBD40F20311204605F002FA18B1E7
:101C700026A007F0EAFAF4E70DE04FF0FF3116482E
:101C800005F08FFC2A4914486530FEF789FF1021C2
:101C9000284805F0F7FFF0E77CB500231A4626A197
:101CA0000D4805F003FC05461DB127A007F0CDFA4D
:101CB0007CBD02200F2143020022CDE90010AFF2CB
:101CC000790129A008F0BBFC044614B1204608F0B5
:101CD00060FC00BFECE70000180000207561727422
:101CE0003400000055415254345F444154413A207D
:101CF00063616E206E6F742066696E642064657621
:101D00006963653A2075617274340A007561727492
:101D1000343A2063616E206E6F74206F70656E20A0
:101D20006465766963653A2075617274340A0000EF
:101D3000C80E00208017002075617274345F7278BD
:101D40005F73656D00000000696E6974206D6573D6
:101D500073616765207175657565206661696C657D
:101D6000642E0D0A0000000055415254345F444176
:101D700054410000F8B504460E46002500200090AE
:101D800001236A460021204605F0DFF9012801D031
:101D9000681EF8BD9DF800102D48FEF7B5FF002025
:101DA000F7E72DE9FC4107462AA103C9CDE9000167
:101DB00028A005F0EFF8044624B928A007F045FA5A
:101DC000BDE8FC8140F20311204605F052F918B13C
:101DD0002CA007F03AFAF3E719E04FF0FF311C4866
:101DE00005F0DFFB30491A486530FEF7D9FE2E4971
:101DF0000D39086812F068FB05462A460B462BA1F0
:101E0000684610F0D3FC2021294805F03BFFE4E7A9
:101E10007CB500231A4627A10D4805F047FB05466F
:101E20001DB128A007F011FA7CBD02200F2143024A
:101E30000022CDE90010AFF295012AA008F0FFFBC7
:101E4000044614B1204608F0A4FB00BFECE70000F4
:101E5000C000002075617274350000005541525475
:101E6000355F444154413A2063616E206E6F7420A7
:101E700066696E64206465766963653A207561728F
:101E800074350A0075617274353A2063616E206E94
:101E90006F74206F70656E206465766963653A20A3
:101EA00075617274350A0000D50E002025660000A9
:101EB0008017002075617274355F72785F73656D8D
:101EC00000000000696E6974206D65737361676559
:101ED000207175657565206661696C65642E0D0AF3
:101EE0000000000055415254355F44415441000008
:101EF00070B5D0B006460025334903C9CDE90201CB
:101F000032A005F047F8044624B932A007F09DF945
:101F100050B070BD2FE04FA84FF0FF3305223C2199
:101F20000090374805F036FF28BB3822354936483F
:101F300006F025FE00BFDD208DF810003822324962
:101F40000DF1110006F01BFE0D208DF849000A204E
:101F50008DF84A003B2304AA0021204605F01BF916
:101F60002948007B0A2190FBF1F201FB120010B915
:101F7000264805F0A2FBCEE71FB5002224A1204889
:101F800005F002FEFFF72CFDFFF7D8FDFFF784FEFA
:101F9000FFF73EFF02200E218202214BCDE90032E5
:101FA000CDE9021000231F4A1FA1234808F097FA29
:101FB00004461CB9204808F0ECFA1FBD1FA007F02A
:101FC00044F900BFF9E70000C84A0108756172745E
:101FD00031000000554152545F414C4C5F44415424
:101FE000413A2063616E206E6F742066696E6420D2
:101FF0006465766963653A2075617274310A000020
:1020000080170020C80E0020900E0020C81D002060
:10201000616C6C5F72785F6576656E7400000000BD
:10202000000F0020F11E0008756172745F73656E09
:10203000736F725F616C6C000017002075617274C1
:102040005F73656E736F725F616C6C20746872652C
:1020500061642073746172747570206661696C6567
:102060006421000030B587B0704D2324012108039E
:1020700001F025FE0121052001F021FEE020ADF850
:10208000180018208DF81B0003208DF81A0006A9EF
:10209000674802F0F3FDE021654802F0CCFF002024
:1020A000ADF80400ADF80600ADF808000220ADF868
:1020B0000A000120ADF80C004002ADF80E003820F7
:1020C000ADF810000020ADF812000720ADF81400A4
:1020D00001A9284602F0BEF801226021284602F03C
:1020E000C7FA8DF8004001208DF801008DF802003C
:1020F0008DF80300684604F0FCFD0121284602F03B
:1021000043FA07B030BD70B50446484D6006040E72
:102110006CB1082C0BD0102C09D0182C07D0202C17
:1021200005D0282C03D0302C01D0382C00D103E06E
:102130005B2140A0FEF7ACF828884FF6C771084035
:1021400028802888204328800121284602F01CFA94
:1021500070BD70B504460025344E04E0681CC5B25D
:10216000642D00DD70BD0221304602F044FC0028E1
:10217000F4D02146304602F0EDFA002500BFF1E729
:1021800070B50024294D05E0601CC4B2642C01DD4B
:10219000002070BD0121284602F02DFC0028F3D05C
:1021A0000024284602F0EBFAC0B2F2E710B51F4C4B
:1021B0000121204602F01FFC01280DD1204602F02B
:1021C000DEFA2149087008460078FFF7C2FF1E4872
:1021D00001781EA007F039F810BDFFF743FF10206B
:1021E000FFF791FF03E04FF47A7008F07BFBFAE70A
:1021F0001FB5052011214FF40072164BCDE90032B6
:10220000CDE902100023144A14A1174808F067F919
:1022100004462CB9144808F0BCF9002004B010BDE5
:1022200012A007F012F84FF0FF30F7E7003001403E
:1022300000080140647269766572735C7370695F4F
:10224000646174612E630000BC04002025640D0AE3
:1022500000000000A0170020DB2100087370695FF8
:102260006461746100000000A01900207370695F50
:102270006461746120746872656164207374617252
:10228000747570206661696C6564210070B50646DE
:1022900000240025B54890F9000009F013FAC4B2F3
:1022A000B34890F9000009F00DFAC5B24FF4007080
:1022B00001F01EFF18B14FF4007001F065FF4FF4FC
:1022C000807001F015FF18B14FF4807001F05CFFD1
:1022D000A8480078002866D0002C64D0002D62D079
:1022E0000020A44908700120A3490870A348006891
:1022F000401CA249086008460068012853D9A0483C
:10230000006800F516709E4908609E48006800EB62
:102310004001C1EBC01040087D21B0FBF1F0C900C5
:1023200048434FF49D71B0FBF1F197480068401E9F
:1023300000EB4002C2EBC0100844C8309049096865
:1023400088421CD38F48006800EB4001C1EBC010ED
:1023500040087D21B0FBF1F0C90048434FF49D7166
:10236000B0FBF1F188480068401E00EB4002C2EB70
:10237000C0100844C83882490968884213D9804887
:1023800000687D21B0FBF1F07F4908607C4800685F
:102390007D21B0FBF1F201FB120020B17A48006808
:1023A000401C794908607348007820B91CB915B9F8
:1023B00001207049087070BD10B50446802001F0FE
:1023C00097FE60B16F480068401C6E4908606F4816
:1023D0000068401C6D490860802001F0D5FE402057
:1023E00001F086FE60B167480068401C65490860DE
:1023F00067480068401C66490860402001F0C4FE40
:102400006048006840F21E3188421CD35A48007868
:10241000C8B101205F4908705F4805F04EF90020FF
:102420005C49087058480068401C574908600846D5
:102430000068012804D9594800687D305749086070
:1024400000205049086010BD10B50221544890F991
:10245000000009F011F90221524890F9000009F03A
:102460000BF90221414890F9000009F005F9022119
:102470003F4890F9000009F0FFF80721022003F01F
:1024800042F80621022003F03EF80921022003F061
:102490003AF80821022003F036F80023AFF2E702F1
:1024A00002213F4890F9000009F098F80023AFF2AC
:1024B000F70202213B4890F9000009F08FF8002351
:1024C000AFF237220221294890F9000009F086F87E
:1024D0000023AFF247220221254890F9000009F0BD
:1024E0007DF801212E4890F9000009F0ACF8012197
:1024F0002C4890F9000009F0A6F801211B4890F93A
:10250000000009F0A0F80121194890F9000009F035
:102510009AF810BDFFF798FF03E04FF4FA6008F057
:10252000E1F9FAE71FB500231A461FA1244804F079
:10253000BDFF04461CB123A006F087FE1FBD02208C
:1025400010210202294BCDE90032CDE9021000230F
:10255000AFF23F0226A1294807F0C1FF044614B993
:10256000264808F016F800BFE8E70000C204002083
:10257000C3040020E8040020E0040020E40400205C
:10258000D8040020C4040020C8040020CC0400208B
:10259000D0040020D4040020C81D0020DC0400204A
:1025A000C0040020C104002063616C696272617420
:1025B000696F6E5F706F696E745F73656D000000A8
:1025C000201A0020696E69742063616C696272610F
:1025D00074696F6E20706F696E742073656D20660C
:1025E00061696C65642E0D0A00000000401A00202D
:1025F000736572766F5F70756C736500401C0020A8
:102600000146412907D2FE4A02EB01100268521C22
:1026100002D1002000E0002070472DE9F04107467C
:102620000D461646E8B2FFF7EBFF04460CB9BDE8CD
:10263000F0812EB9A28991B2A06802F027FD04E0D2
:10264000A28991B2A06802F0F6FC00BFEFE72DE985
:10265000F04107460D460026E8B2FFF7D1FF0446D9
:1026600014B93046BDE8F081A28991B2A06802F0A9
:10267000CAFB08B9002600E001263046F2E7F8B5AB
:1026800007460E461446F0B2FFF7BAFF054605B9F5
:10269000F8BD0121686801F012FBA88980B2ADF88D
:1026A000000010208DF8030003208DF802001CB9F3
:1026B00010208DF803000EE0012C03D104208DF8CA
:1026C000030008E0022C03D148208DF8030002E04B
:1026D00028208DF803006946A86802F0CFFA00BFF1
:1026E000D6E70246002106E001208840904201D151
:1026F00008467047491C2029F6DB4FF0FF30F8E709
:102700002DE9F05F83460D4616461F46DDF828800A
:102710004FF0FF34E8B2FFF773FF8146B9F1000FC5
:1027200002D1601FBDE8F09FD9F80C00FFF7D9FF78
:102730000446002C01DB102C02D36FF00500F1E7FA
:1027400008F062FE824604EB4400AE4931F92000F5
:10275000A84219D104EB440001EB80004068B84264
:1027600012D104EB440001EB80004088B0420BD151
:1027700004EB440001EB80008068404504D15046E2
:1027800008F046FE0020CDE704EB44009D4931F9F6
:102790002000401C05D0504608F03AFE6FF00600BD
:1027A000C0E728B204EB4401964A22F8210004EB6A
:1027B0004400114601EB8000476004EB440102EB4A
:1027C00081014E8004EB4400114601EB8000C0F80B
:1027D0000880504608F01CFE0020A3E72DE9F041D8
:1027E00080460D464FF0FF34E8B2FFF709FF06467A
:1027F00016B9601FBDE8F081F068FFF772FF04466C
:10280000002C01DB102C02D36FF00500F2E708F07A
:10281000FBFD074604EB44007A4931F92000401CD7
:1028200004D1384608F0F4FD0020E3E74FF0FF3014
:1028300004EB4401734A22F82100002004EB440118
:1028400002EB8101486004EB440102EB8101488006
:1028500004EB440102EB81018860384608F0D8FDA2
:102860000020C7E72DE9FF5F894617464FF0FF3686
:1028700009F0FF00FFF7C4FE04461CB9701F04B046
:10288000BDE8F09F012F67D1E068FFF72AFF0646F9
:10289000002E01DB102E02D36FF00500EFE708F0E9
:1028A000B3FD834606EB4600564931F92000401C33
:1028B00005D1584608F0ACFD6FF00500DFE706EBE8
:1028C0004600514901EB80050121606801F0F7F9EC
:1028D000A08980B2ADF80C0048208DF80F000320CD
:1028E0008DF80E0003A9A06802F0C8F9287A8DF8C7
:1028F000080000208DF8090001208DF80A008DF8ED
:102900000B0002A804F0F5F96868009000208DF82B
:10291000040006EB46003B4901EB8000408820B1F3
:10292000012806D002280CD107E008208DF8050008
:1029300007E00C208DF8050003E010208DF805005D
:1029400000BF00BF01208DF80600684601F0EAFADA
:10295000584608F05DFD2AE037BBD4F80CA050467D
:10296000FFF7BFFE8046B8F1000F02DBB8F1100F91
:1029700001D3002004E008EB4800234901EB80006C
:10298000054615B96FF0050079E7686800900020EA
:102990008DF8040008208DF8050000208DF8060051
:1029A000684601F0BFFA02E06FF0050067E700201B
:1029B00065E710B50022154915A008F0F3FD04469F
:1029C000204610BD10B5044604EB44010E4A02EB4C
:1029D000810191F9080001F0D7FB04EB440009499B
:1029E00001EB80004068B0B104EB44020B4603EBFE
:1029F0008202906804EB440203EB8202516809E012
:102A0000D04A0108EC040020E04E0108A04F010864
:102A100070696E00884710BD10B506F023F80020DD
:102A2000FFF7D0FF06F035F810BD10B506F01AF824
:102A30000120FFF7C7FF06F02CF810BD10B506F017
:102A400011F80220FFF7BEFF06F023F810BD10B505
:102A500006F008F80320FFF7B5FF06F01AF810BDDE
:102A600010B505F0FFFF0420FFF7ACFF06F011F8EA
:102A700010BD10B505F0F6FF202001F039FB10B1B4
:102A80000520FFF79FFF402001F032FB10B1062028
:102A9000FFF798FF802001F02BFB10B10720FFF714
:102AA00091FF4FF4807001F023FB10B10820FFF775
:102AB00089FF4FF4007001F01BFB10B10920FFF7F4
:102AC00081FF05F0E6FF10BD10B505F0CBFF4FF418
:102AD000806001F00DFB10B10A20FFF773FF4FF487
:102AE000006001F005FB10B10B20FFF76BFF4FF406
:102AF000805001F0FDFA10B10C20FFF763FF4FF496
:102B0000005001F0F5FA10B10D20FFF75BFF4FF414
:102B1000804001F0EDFA10B10E20FFF753FF4FF4A3
:102B2000004001F0E5FA10B10F20FFF74BFF05F070
:102B3000B0FF10BD70B586B006460C46356C01A8D6
:102B400001F005FD6078082803DC0020ADF80800DE
:102B50000AE06078102804DC4FF40060ADF808004B
:102B600002E0082006B070BD606800F0F6F8ADF82D
:102B70001000207810F0020F03D00220ADF80A00F8
:102B800002E00020ADF80A00207810F0010F03D019
:102B90000120ADF80C0002E00020ADF80C00207818
:102BA00010F0040F03D00020ADF8120002E08020E6
:102BB000ADF812000020ADF804004FF48270ADF8BB
:102BC00006004FF40070ADF80E00E86E01F00EFB49
:102BD00001A9E86E01F03EFB0121E86E01F0D4FC92
:102BE0000021E86E01F076FE0020BBE72DE9FC5FD6
:102BF00006460C46306C019006F144090198C06EFF
:102C00000090F56BD4F808A0207C10F0010F04D0E0
:102C10001DB1A988286802F039FA99F8010008283E
:102C20002BDC2768D4F8048021E04FF0FF0B0FB1B4
:102C300017F801BB00BF0221009801F0DCFE00285C
:102C4000F9D05946009801F085FD00BF0121009898
:102C500001F0D1FE0028F9D0009801F090FD00F0BD
:102C6000FF0BB8F1000F01D008F801BB00BF5FEA0D
:102C70000A00AAF1010AD8D12EE099F80100102823
:102C80002ADC2768D4F8048020E04FF0FF0B0FB156
:102C900037F802BB00BF0221009801F0ACFE00280B
:102CA000F9D05946009801F055FD00BF0221009867
:102CB00001F0A1FE0028F9D0009801F060FD8346E4
:102CC000B8F1000F01D028F802BB00BF5FEA0A008C
:102CD000AAF1010AD9D100BF207CC0F3400020B185
:102CE0001DB1A988286802F0A6F9A068BDE8FC9F7C
:102CF0002DE9F04105460C4616460027B84601214D
:102D0000084600F0DCFF3248854205D1E06601212B
:102D1000801400F0D4FF14E02E48854205D1E0660F
:102D20000121001400F0F4FF0BE02B48854205D18F
:102D3000E0660121C01300F0EBFF02E00620BDE8D1
:102D4000F081264A3146204609F0E6FA0746E08A35
:102D500040EA0800E0823846F1E70146204A12685E
:102D6000B1EB520F07D31E4A12681E4BB3EB520F42
:102D700001D300202AE01A4A1268B1EB920F01D366
:102D8000082023E0164A1268B1EBD20F01D31020BD
:102D90001CE0134A1268B1EB121F01D3182015E092
:102DA0000F4A1268B1EB521F01D320200EE00C4AEB
:102DB0001268B1EB921F01D3282007E0084A12687D
:102DC000B1EBD21F01D3302000E038207047000063
:102DD0000030014000380040003C0040AC050020BD
:102DE000E00500200051250208B50121092000F06E
:102DF00066FF4FF42040ADF8000003208DF802007C
:102E000018208DF803006946364801F037FF4FF46B
:102E10008040ADF8000004208DF803006946314879
:102E200001F02CFF30A232493248FFF761FF012048
:102E30008DF8020010208DF803002A482E49086002
:102E4000801488800121082000F039FF2A488088FA
:102E5000ADF8000028490868694601F00FFF264ACE
:102E60009188106802F0E7F8234B1FA223A12548A0
:102E700009F06BFA01208DF8020010208DF8030094
:102E80000121214802F032FA2048214908604FF41C
:102E9000004088800121052000F011FF1C48808837
:102EA000ADF800001A490868694601F0E7FE184AC3
:102EB0009188106802F0BFF8154B0BA215A11748B6
:102EC00009F043FA002008BD70477047704710B5FD
:102ED0000AA113A009F053FF022007F003FD00F040
:102EE000ADFA10BD000C01407370693200000000A3
:102EF000C01C002000380040B40500207370693207
:102F000030000000301D00200002300000080140A9
:102F1000BC05002073706932310000007C1D002068
:102F200077323571363400002DE9F05F04460D46E6
:102F300016469A46D4F84080D4F83C9024B93B22F7
:102F4000FC49FDA006F064FA206C20B93C22F94946
:102F5000FEA006F05DFA216C01F144004FF0FF3154
:102F600004F07BFC0746002F4CD1206C806EA04201
:102F700011D0206C006C04F1440102682046904797
:102F8000074617B9206C846605E06FF0070005F06E
:102F9000B1FD00273DE0B9F80410D9F8000002F0B7
:102FA00075F823E04FF0FF0B0DB115F801BB00BF22
:102FB0000221D8F86C0001F01EFD0028F8D0594617
:102FC000D8F86C0001F0C6FB00BF0121D8F86C00F6
:102FD00001F011FD0028F8D0D8F86C0001F0CFFB0B
:102FE00000F0FF0B0EB106F801BB00BF5FEA0A005C
:102FF000AAF1010AD6D1B9F80410D9F8000002F0FC
:103000001AF805E06FF0070005F074FDBDE8F09FC9
:1030100000BF216C01F1440004F02AFD00BFF5E778
:1030200038B505460C4604236A4600212846FFF7BA
:103030007BFF9DF8000000069DF8011040EA01406A
:103040009DF8021040EA01209DF80310084320601B
:1030500038BDF8B506460D46002409E0C4F103006A
:10306000C00025FA00F0C0B20DF80400601C84B264
:10307000042CF3DB0423002269463046FFF754FF9B
:10308000F8BD30B589B005461F24002404E0FF20B8
:103090000DF80400601C84B21F2CF8DBFE208DF8B4
:1030A0001F002023002269462846FFF73DFF09B094
:1030B00030BD1CB5044603208DF804000123002216
:1030C00001A92046FFF730FF4FF000512046FFF7DF
:1030D000C0FF322007F006FC03208DF80400012316
:1030E000002201A92046FFF71FFF00212046FFF71D
:1030F000B0FF0B208DF804000123002201A9204617
:10310000FFF712FF69462046FFF78AFF0B208DF874
:1031100004000123002201A92046FFF705FF6946AC
:103120002046FFF77DFF09208DF8040001230022CF
:1031300001A92046FFF7F8FE69462046FFF770FF19
:103140000A208DF804000123002201A92046FFF780
:10315000EBFE69462046FFF763FF0D208DF8040063
:103160000123002201A92046FFF7DEFE6946204622
:10317000FFF756FF1CBD1CB5044602208DF8040065
:103180000123002201A92046FFF7CEFE4FF08071F7
:103190002046FFF75EFF0A208DF80400012300227D
:1031A00001A92046FFF7C0FE69462046FFF738FF19
:1031B0006CA0009906F049F805208DF80400012361
:1031C000002201A92046FFF7AFFE4FF0A86120467C
:1031D000FFF73FFF0D208DF804000123002201A915
:1031E0002046FFF7A1FE69462046FFF719FF5DA0C4
:1031F000009906F02AF803208DF80400012300222C
:1032000001A92046FFF790FE4FF002712046FFF71C
:1032100020FF0B208DF804000123002201A9204685
:10322000FFF782FE69462046FFF7FAFE4DA000999F
:1032300006F00BF801208DF804000123002201A9FB
:103240002046FFF771FE49492046FFF702FF642040
:1032500007F048FB09208DF804000123002201A992
:103260002046FFF761FE69462046FFF7D9FE3DA0E4
:10327000009905F0EAFF1CBDF8B5044601250020C1
:103280003B4908603B4908607DB300BF4FF4804173
:10329000394801F0B8FD0028F8D18DF8000001236D
:1032A000002269462046FFF73FFE34492046FFF7DB
:1032B000B7FE324800682F4908600846006811F0E0
:1032C0006BFA06462E4911F07BFA2E4908602E490A
:1032D0002C48006811F074FA06462C4911F03CFBAA
:1032E0002B49086008460068F8BDFFE700208DF80C
:1032F00000000123002269462046FFF715FE1F4902
:103300002046FFF78DFE1D480068000A1949086035
:103310000846006811F040FA06461E4911F050FABE
:103320001849086018491748006811F049FA06461C
:10333000164931E0B84F010864657669636520215C
:103340003D2052545F4E554C4C0000006465766938
:1033500063652D3E62757320213D2052545F4E55AA
:103360004C4C000025780D0A000000000000FDFF15
:10337000C4050020CC050020000C0140C805002039
:103380000000A030D4050020000060410000074389
:10339000D80500200100A03411F0DEFA344908609D
:1033A00008460068A0E7FEB5064632A003F0F2FD2D
:1033B00004461CB931A005F048FFFEBD08208DF879
:1033C000010004208DF80000324801906946204633
:1033D00008F0E0FF2046FFF754FE642007F082FA71
:1033E0002046FFF766FE642007F07CFA2046FFF7D0
:1033F000C2FE642007F076FAC0208DF80800012391
:10340000002202A92046FFF78FFD0A2007F06AFA82
:1034100000231A4620A1234804F048F80DE04FF09D
:10342000FF31204804F0BDF82046FFF725FF054690
:103430001D4911F0C5F91D494863F0E71FB5142077
:1034400010214A011A4BCDE90032CDE902100023C8
:10345000184A19A11A4807F042F804461CB918483E
:1034600007F097F81FBD17A005F0EFFE00BFF9E7C2
:10347000D805002073706932310000007370693222
:1034800031202573206E6F7420666F756E64210D78
:103490000A000000801A06006373353533325F730B
:1034A000656D0000C81D00200000C842C80E002045
:1034B000E81D0020A7330008637335353332000060
:1034C000E81F0020637335353332207468726561FC
:1034D000642073746172747570206661696C6564D0
:1034E000210000000CB50020019000906B4800689E
:1034F00040F480306949086000BF6848006800F403
:10350000003000900198401C0190009818B9019873
:10351000B0F5A06FF1D16148006810F4003F02D00F
:103520000120009001E0002000900098012842D185
:103530005B48006840F01000594908600846006880
:1035400020F0030008600846006840F002000860B0
:1035500052484068514948600846406848600846FB
:10356000406840F4806048600846406820F47C1061
:1035700048600846406840F4E81048600846006823
:1035800040F08070086000BF4448006810F0007F81
:10359000FAD04248406820F003004049486008469D
:1035A000406840F00200486000BF3C48406800F0BE
:1035B0000C000828F9D10CBD10B5FFF793FF10BD22
:1035C00010B53648006840F00100344908600846EC
:1035D000406834490840314948600846006832492B
:1035E00008402E4908600846006820F480200860E2
:1035F0000846406820F4FE0048604FF41F008860D1
:10360000FFF7DAFF4FF000602849086010BD10B5E1
:10361000002100200022214B5B6803F00C0121B146
:10362000042906D0082928D107E0214B214C23602A
:1036300027E01F4B1F4C236023E0184B5B6803F40B
:103640007010164B5B6803F48032022303EB90404A
:1036500022B9194B4343174C23600DE00F4B5B68B5
:1036600013F4003F04D0144B4343124C236003E097
:103670000F4B43430F4C236003E00D4B0D4C236075
:1036800000BF00BF054B5B68C3F303130B4CE15C49
:10369000084B1B68CB40074C236010BD0010024054
:1036A000002002400000FFF8FFFFF6FE08ED00E0FA
:1036B00000127A00E005002000093D00E40500202A
:1036C000FE48006840F00100FC4908600846406878
:1036D000FB490840F949486008460068F949084034
:1036E000F64908600846006820F480200860084613
:1036F000406820F4FE0048604FF41F008860704767
:1037000010B504462CB1B4F5803F02D0B4F5802F3B
:1037100000D104E040F21111EBA0FCF7B9FDE7483D
:10372000006820F48030E54908600846006820F40D
:1037300080200860B4F5803F03D0B4F5802F0ED10F
:1037400006E0DE48006840F48030DC49086007E0AD
:10375000DA48006840F4A020D849086000E000BFC3
:1037600000BF10BD2DE9F0410446002500260027CA
:10377000212C13D0312C11D0392C0FD0412C0DD04D
:10378000612C0BD07A2C09D07B2C07D07C2C05D057
:103790007D2C03D07E2C01D07F2C00D104E040F2A0
:1037A0003451C9A0FCF774FD6511012D02D1C34845
:1037B000066806E0022D02D1C048066A01E0BF4853
:1037C000466A04F01F050120A840304201D00127BD
:1037D00000E000273846BDE8F08138B500200090B1
:1037E0000024002500BF3120FFF7BCFF05460098EC
:1037F000401C00900098B0F5A06F01D0002DF2D0D1
:103800003120FFF7AFFF08B1012400E0002420467B
:1038100038BD70B5044600251F2C00DC04E04FF4D1
:10382000A971A9A0FCF734FDA448056825F0F805A6
:1038300045EAC405056070BD10B504460CB1012C05
:1038400000D104E040F265119FA0FCF721FDAD48D6
:10385000046010BD70B505460C4600262DB1B5F5C7
:10386000803F02D0B5F5403F00D104E040F27F1127
:1038700095A0FCF70DFD4CB3B4F5802F26D0B4F520
:10388000002F23D0B4F5402F20D0B4F5801F1DD0D9
:10389000B4F5A01F1AD0B4F5C01F17D0B4F5E01FBF
:1038A00014D0B4F5001F11D0B4F5101F0ED0B4F52C
:1038B000201F0BD0B4F5301F08D0B4F5401F05D041
:1038C000B4F5501F02D0B4F5601F00D104E04FF4EE
:1038D000C0717DA0FCF7DCFC7848466826F47C16B5
:1038E00045EA040006437548466070BD10B50446BD
:1038F0000CB1012C00D104E04FF4CA7172A0FCF7A6
:10390000C7FC8048046610BD70B5044600251CB194
:10391000012C01D0022C00D104E04FF40E716AA0FA
:10392000FCF7B6FC6548456825F00305254345606E
:1039300070BD6248406800F00C00704770B50446E6
:1039400000257CB1802C0DD0902C0BD0A02C09D060
:10395000B02C07D0C02C05D0D02C03D0E02C01D047
:10396000F02C00D104E04FF4197157A0FCF790FC43
:103970005248456825F0F0052543456070BD70B597
:10398000044600255CB1B4F5806F08D0B4F5A06F93
:1039900005D0B4F5C06F02D0B4F5E06F00D104E0FB
:1039A00040F27E2148A0FCF773FC4448456825F4AA
:1039B000E0652543456070BD70B5044600255CB1E7
:1039C000B4F5806F08D0B4F5A06F05D0B4F5C06F22
:1039D00002D0B4F5E06F00D104E04FF426713AA0B4
:1039E000FCF756FC3548456825F4605545EAC405A2
:1039F000456070BD70B504460D4614F0E00F01D16E
:103A000004B104E040F2BF212FA0FCF741FC0DB14E
:103A1000012D00D104E04FF430712BA0FCF738FCED
:103A20002DB12648407A20432449487204E02348B7
:103A3000407AA0432149487270BD10B504460CB1CC
:103A4000012C00D104E040F2DB211FA0FCF720FC98
:103A50002D48046010BD70B50446002544B1B4F58E
:103A6000804F05D0B4F5004F02D0B4F5404F00D1DF
:103A700004E040F2023114A0FCF70AFC0F4845684C
:103A800025F440452543456070BD10B504461CB182
:103A9000012C01D0042C00D104E04FF450710AA095
:103AA000FCF7F6FB002019490870044981F8200052
:103AB000012C2DD0042C33D12EE000000010024048
:103AC0000000FFF8FFFFF6FE4C69627261726965E3
:103AD000735C53544D3332463130785F53746450C5
:103AE00065726970685F4472697665725C7372634F
:103AF0005C73746D3332663130785F7263632E634A
:103B00000000000000004242D80042422010024063
:103B10000120F449087004E00520F249087000E033
:103B200000BF00BF10BD10B504460CB1012C00D180
:103B300005E040F26131AFF27000FCF7A9FBEA4802
:103B4000046010BD10B50446B4F5807F05D0B4F50F
:103B5000007F02D0B4F5407F00D105E040F2723121
:103B6000AFF29C00FCF794FBDE482038006A20434B
:103B7000DC492039086210BD10B504460CB1012C97
:103B800000D105E04FF46071AFF2C400FCF780FB98
:103B9000D5484438046010BD30B50021002200240F
:103BA0000023D04D203D6D6805F00C0121B10429A2
:103BB00005D0082926D105E0CC4D056025E0CB4D88
:103BC000056022E0C74D203D6D6805F47012C54DBB
:103BD000203D6D6805F48034022505EB92421CB946
:103BE000C34D554305600CE0BE4D203D6D6815F496
:103BF000003F03D0BE4D5543056002E0BB4D554329
:103C0000056002E0B94D056000BF00BFB54D203D25
:103C10006D6805F0F0010909B64D6B5C0568DD4083
:103C20004560B04D203D6D6805F4E061090AB14D75
:103C30006B5C4568DD408560AA4D203D6D6805F4EC
:103C40006051C90AAB4D6B5C4568DD40C560A54D50
:103C5000203D6D6805F44041890BA74D6B5CC5683C
:103C6000B5FBF3F5056130BD70B504460D4640F275
:103C7000575034EA000001D104B105E040F22B4175
:103C8000AFF2BC10FCF704FB0DB1012D00D105E033
:103C900040F22C41AFF2D010FCF7FAFA3DB1914856
:103CA0002038406920438F492039486106E08D481B
:103CB00020384069A0438B492039486170BD70B5F8
:103CC00004460D468D48044201D104B105E040F29E
:103CD0004A41AFF20C20FCF7DBFA0DB1012D00D107
:103CE00005E040F24B41AFF22020FCF7D1FA3DB1A4
:103CF0007C482038806920437A492039886106E071
:103D0000784820388069A04376492039886170BDA1
:103D100070B504460D467A48044201D104B105E06D
:103D200040F26941AFF26020FCF7B2FA0DB1012D0B
:103D300000D105E040F26A41AFF27420FCF7A8FA26
:103D40003DB168482038C069204366492039C861C0
:103D500006E064482038C069A04362492039C86140
:103D600070BD70B504460D466448044201D104B1EB
:103D700005E040F2A441AFF2B020FCF789FA0DB1A2
:103D8000012D00D105E040F2A541AFF2C420FCF7BF
:103D90007FFA3DB153482038C0682043514920394B
:103DA000C86006E04F482038C068A0434D4920391C
:103DB000C86070BD70B504460D465148044201D13B
:103DC00004B105E040F2C341AFF20430FCF760FA01
:103DD0000DB1012D00D105E040F2C441AFF2183021
:103DE000FCF756FA3DB13F482038006920433D4971
:103DF0002039086106E03B4820380069A043394972
:103E00002039086170BD10B504460CB1012C00D1F9
:103E100005E04FF49B61AFF25030FCF739FA3248BD
:103E20004038046010BD10B504460CB1012C00D11F
:103E300005E040F2E541AFF27030FCF729FA314875
:103E4000C46410BD10B504463CB1052C05D0042C4B
:103E500003D0062C01D0072C00D105E040F205511B
:103E6000AFF29C30FCF714FA1E482038C47110BD24
:103E70001C482038406A40F080701A492039486256
:103E8000704770B504460025012C09D0022C07D0DC
:103E9000042C05D0082C03D0102C01D0802C00D18C
:103EA00005E040F27E51AFF2E030FCF7F1F90D4849
:103EB00020388068204201D0012500E000252846F6
:103EC00070BD10B5044614F0600F01D104B105E0D7
:103ED00040F2AB51AFF21040FCF7DAF9014820385C
:103EE000847210BD201002408004424200127A0009
:103EF00000093D00F4050020040600200200C0FF78
:103F000000360181000042420020A7490860091DD7
:103F10000860091D0860091D0860A448A249143101
:103F20000860704770B504460025207910B12079EB
:103F3000042800D103E06A219DA0FCF7A9F960796B
:103F4000082805D060790C2802D06079102800D1AB
:103F500003E06B2196A0FCF79BF92068000D00059B
:103F600002D1206800B103E06C2191A0FCF790F928
:103F7000A07910B1A079012800D103E06D218CA0B7
:103F8000FCF786F9884DA07990B32846006821682F
:103F9000884329460860081D006821688843291D58
:103FA00008602079054428682168084328607E4815
:103FB00008300068216888437B4908310860081D83
:103FC00000682168884378490C31086060791028BE
:103FD0000FD1081F00682168084373490831086041
:103FE000081D0068216808436F490C3108600EE025
:103FF00007E06D4D60790544286821680843286012
:1040000005E020790544286821688843286070BD50
:104010000021016001710C21417100218171704703
:1040200010B50446200D000501D104B103E0AE2116
:104030005FA0FCF72DF95C481030006820435A4916
:104040001031086010BD70B504460025012C31D038
:10405000022C2FD0042C2DD0082C2BD0102C29D0A2
:10406000202C27D0402C25D0802C23D0B4F5807F65
:1040700020D0B4F5007F1DD0B4F5806F1AD0B4F510
:10408000006F17D0B4F5805F14D0B4F5005F11D085
:10409000B4F5804F0ED0B4F5004F0BD0B4F5803F8F
:1040A00008D0B4F5003F05D0B4F5802F02D0B4F5A8
:1040B000002F00D103E0BE213DA0FCF7E9F83A480B
:1040C00014300068204201D0012500E00025284678
:1040D00070BD10B50446200D000501D104B103E008
:1040E000D42133A0FCF7D4F82F481430046010BD5D
:1040F00070B5044600250026012C31D0022C2FD0AB
:10410000042C2DD0082C2BD0102C29D0202C27D0DB
:10411000402C25D0802C23D0B4F5807F20D0B4F55E
:10412000007F1DD0B4F5806F1AD0B4F5006F17D0A2
:10413000B4F5805F14D0B4F5005F11D0B4F5804FB2
:104140000ED0B4F5004F0BD0B4F5803F08D0B4F5D5
:10415000003F05D0B4F5802F02D0B4F5002F00D178
:1041600003E0E52112A0FCF793F80F48006800EA8D
:1041700004060D4814300068204202D00EB101251B
:1041800000E00025284670BD10B50446200D00054E
:1041900001D104B103E0FC2105A0FCF779F8024845
:1041A0001430046010BD000000040140FFFF0F0048
:1041B0004C69627261726965735C53544D33324667
:1041C0003130785F5374645065726970685F44720F
:1041D000697665725C7372635C73746D33326631D9
:1041E00030785F657874692E6300000010B504466E
:1041F000F948844205D0F948844202D0F848844204
:1042000000D103E07A21F7A0FCF742F8F24884429B
:1042100008D101218014FFF7A4FD0021A014FFF7AD
:10422000A0FD16E0ED48844208D101210014FFF7FB
:10423000C1FD00212014FFF7BDFD0AE0E8488442DB
:1042400007D10121C013FFF7B5FD0021E013FFF7EF
:10425000B1FD10BD70B505460C460026DE4885420E
:1042600005D0DE48854202D0DD48854200D103E01A
:10427000A321DCA0FCF70CF8208858B12088B0F509
:10428000806F07D02088B0F5004F03D02088B0F5AC
:10429000404F00D103E0A621D2A0FBF7F9FF6088D0
:1042A000B0F5827F01D0608800B903E0A721CDA0DE
:1042B000FBF7EEFFA088B0F5006F01D0A08800B931
:1042C00003E0A821C7A0FBF7E3FFE08810B1E08876
:1042D000022800D103E0A921C2A0FBF7D9FF208961
:1042E00010B12089012800D103E0AA21BDA0FBF76D
:1042F000CFFF6089B0F5007F01D0608900B903E08D
:10430000AB21B8A0FBF7C4FFA089A0B1A089082801
:1043100011D0A08910280ED0A08918280BD0A08910
:10432000202808D0A089282805D0A089302802D0CC
:10433000A089382800D103E0AC21AAA0FBF7A8FF90
:10434000E08910B1E089802800D103E0AD21A5A06B
:10435000FBF79EFF208A012800DB03E0AE21A1A02D
:10436000FBF796FF2E8806F44156208861880843A3
:10437000A1880843E18808432189084361890843EB
:10438000A1890843E189084306432E80A88B4FF298
:10439000FF710840A883208A288270BD2DE9F04F64
:1043A00085B005460C464FF0000902274FF0000883
:1043B0004FF0010B0026B2468848854202D088485B
:1043C000854200D103E0E32186A0FBF761FF20884E
:1043D00058B12088B0F5807F07D02088B0F5007FE5
:1043E00003D02088B0F5407F00D103E0E4217DA018
:1043F000FBF74EFF608858B16088102808D06088AD
:10440000202805D06088302802D06088B02800D1EC
:1044100003E0E52173A0FBF73BFFA08840B1A08833
:10442000012805D0A088032802D0A088052800D143
:1044300003E0E6216BA0FBF72BFFE088B0F5007FDF
:1044400001D0E08800B903E0E72166A0FBF720FF78
:10445000A068B0F5FA5F03D37149A068884202D919
:10446000A068022800D103E0E8215EA0FBF710FF5E
:10447000A08910B1A089082800D103E0E92159A042
:10448000FBF706FFA88B4FF240010840A8830220EB
:104490002884B5F81C90A068022803D14FF00008CA
:1044A000022738E0A08810B94FF0010B01E04FF06F
:1044B000020B4A48854200D100E000BF6846FFF782
:1044C0006BFBDDF800A0E088B0F5007F0AD14FEA71
:1044D0001A2000EB80004000A168B0FBF1F0401D05
:1044E00086B20BE04FEA4B10BAFBF0F000EB800015
:1044F0004000A168B0FBF1F0401D86B20A20B6FB77
:10450000F0F606F00108A6EB0800C0F34F074FF6DF
:10451000FF7000EA0828022F01DBFF2F02DD0227CF
:104520004FF00008E08840EA080038432884A0885B
:10453000A1890843618808432188084340F400604A
:1045400040EA0909A5F81C9005B0BDE8F08F0021EC
:1045500001804FF48271418000218180C1800181FE
:104560004FF400714181382181810021C1810721EF
:10457000018270470021018041808180C180022139
:10458000816000218181704770B504460D46124854
:10459000844205D01148844202D01148844200D19F
:1045A00004E04FF4D7710FA0FBF772FE0DB1012D9F
:1045B00000D104E040F2AF110AA0FBF769FE25B17B
:1045C000208840F04000208004E020884FF6BF7132
:1045D0000840208070BD00000030014000380040DD
:1045E000003C00404C69627261726965735C5354AF
:1045F0004D3332463130785F537464506572697060
:10460000685F4472697665725C7372635C73746D23
:104610003332663130785F7370692E6300000000BA
:1046200000EE020070B504460D46FA48844202D0FE
:10463000F948844200D105E04FF4E371AFF25C0029
:10464000FBF726FE0DB1012D00D105E040F2C711A8
:10465000AFF27000FBF71CFE25B1A08B40F4806028
:10466000A08304E0A08B4FF6FF310840A08370BD0B
:104670002DE9F04104460D4616464FF0000800278C
:10468000E648844205D0E348844202D0E2488442AE
:1046900000D105E04FF4F371AFF2B800FBF7F8FD7D
:1046A0000EB1012E00D105E040F2E711AFF2CC00CF
:1046B000FBF7EEFD712D03D0602D01D0502D00D100
:1046C00005E04FF4F471AFF2E400FBF7E1FD4FEACF
:1046D0002518012000FA08F087B21EB1A0883843DF
:1046E000A08002E0A088B843A080BDE8F08170B54A
:1046F00004460D461646C948844205D0C548844242
:1047000002D0C548844200D105E04FF40371AFF2F6
:104710002C10FBF7BDFD0EB1012E00D105E040F2DB
:104720000D21AFF24010FBF7B3FD4FF6FC700542D0
:1047300001D105B105E040F20E21AFF25810FBF7B0
:10474000A7FD1EB1A0882843A08002E0A088A8434E
:10475000A08070BD70B504460D46B048844205D0B7
:10476000AC48844202D0AC48844200D105E040F21B
:104770002621AFF29010FBF78BFDA58170BD10B51F
:104780000446A648844205D0A248844202D0A248EA
:10479000844200D105E040F23621AFF2B810FBF7B9
:1047A00077FDA08910BD70B504460D469B48844234
:1047B00005D09848844202D09748844200D105E051
:1047C0004FF41271AFF2E410FBF762FDB5F5807F94
:1047D00003D0A5F57E40FF3800D105E040F2492125
:1047E000AFF20020FBF754FDA5F57E40FF3804D062
:1047F000208840F48070208004E020884FF6FF611C
:104800000840208070BD70B504460D468348844240
:1048100005D08048844202D07F48844200D105E020
:104820004FF41871AFF24420FBF732FD0DB1012DAA
:1048300000D105E040F26121AFF25820FBF728FDDE
:1048400025B1A08840F00400A08004E0A0884FF6C5
:10485000FB710840A08070BD70B504460D466F48DE
:10486000844205D06B48844202D06B48844200D118
:1048700005E040F27A21AFF29420FBF709FDB5F58F
:10488000006F00D005B905E040F27B21AFF2AC200B
:10489000FBF7FEFC20884FF2FF7108402080208843
:1048A0002843208070BD10B504465C48844205D082
:1048B0005848844202D05848844200D105E040F272
:1048C0008A21AFF2E020FBF7E3FC208840F480501F
:1048D000208010BD70B504460D465048844205D076
:1048E0004C48844202D04C48844200D105E040F25A
:1048F0009A21AFF21030FBF7CBFC0DB1012D00D1A6
:1049000005E040F29B21AFF22430FBF7C1FC25B15A
:10491000208840F40050208004E020884DF6FF718C
:104920000840208070BD70B504460D4600263B4807
:10493000844205D03748844202D03748844200D1AF
:1049400005E040F2B521AFF26430FBF7A1FC0DB1F8
:10495000012D00D105E040F2B621AFF27830FBF72F
:1049600097FC012D01D0268B00E0A68A304670BD51
:1049700010B504462948844205D02648844202D016
:104980002548844200D105E040F2CD21AFF2AC30A1
:10499000FBF77EFC208A10BD70B504460D461F480B
:1049A000844205D01B48844202D01B48844200D177
:1049B00005E040F2DF21AFF2D430FBF769FCA5F54A
:1049C0003F40FF3802D0B5F5804F00D105E04FF4ED
:1049D0003871AFF2F030FBF75BFCB5F5804F04D1D6
:1049E000208840F48040208004E020884BF6FF714E
:1049F0000840208070BD70B505460C46002607486B
:104A0000854205D00348854202D00348854207D13C
:104A10000CE0000000380040003C00400030014045
:104A200040F20231AFF24440FBF732FC802C0DD053
:104A3000402C0BD0202C09D0102C07D0082C05D0EE
:104A4000042C03D0022C01D0012C00D105E040F24F
:104A50000331AFF27040FBF71BFC2889204201D0E4
:104A6000012600E00026304670BD70B504460D46B4
:104A70004248844205D04248844202D041488442A0
:104A800000D105E040F22731AFF2A840FBF700FC6F
:104A9000102D00D105E04FF44A71AFF2B840FBF79A
:104AA000F7FBE843208170BD2DE9F04705460C4631
:104AB0000027B8460026B1463048854205D0304828
:104AC000854202D02F48854200D105E040F24331B3
:104AD000AFF2F040FBF7DCFB602C09D0712C07D063
:104AE000532C05D0542C03D0552C01D0562C00D17A
:104AF00005E04FF45171AFF21450FBF7C9FB04F01D
:104B00000F01012088401FFA80F826110120B040D3
:104B100086B2A88800EA0609288910EA080F04D09E
:104B2000B9F1000F01D0012700E000273846BDE8A9
:104B3000F08770B504460D4600261048844205D023
:104B40000F48844202D00F48844200D105E040F271
:104B50007731AFF27050FBF79BFB542D00D105E08D
:104B60004FF45E71AFF28450FBF792FB05F00F013A
:104B70000120884086B2F043208170BD00300140A2
:104B800000380040003C004010B50446FC48844218
:104B900011D0FC4884420ED0FB4884420BD0FB4825
:104BA000844208D0FA48844205D0FA48844202D0B0
:104BB000F948844200D103E06F21F8A0FBF768FBBD
:104BC000EF48844208D101210420FFF7CAF80021F0
:104BD0000420FFF7C6F846E0EA48844208D10121E4
:104BE0000820FFF7BEF800210820FFF7BAF83AE0E6
:104BF000E548844208D101211020FFF7B2F80021D6
:104C00001020FFF7AEF82EE0E048844208D10121E1
:104C10002020FFF7A6F800212020FFF7A2F822E0CD
:104C2000DB48844208D101214020FFF79AF8002197
:104C30004020FFF796F816E0D648844208D10121BB
:104C40008020FFF78EF800218020FFF78AF80AE025
:104C5000D148844207D101218015FFF782F8002155
:104C6000A015FFF77EF810BD10B501210846FFF72B
:104C700078F800210120FFF774F810BD2DE9F05FEE
:104C800005460C464FF00009CA4600260027B046EC
:104C9000B346BB48854211D0BA4885420ED0BA48C7
:104CA00085420BD0B948854208D0B948854205D025
:104CB000B848854202D0B848854200D103E0B2210D
:104CC000B6A0FBF7E5FAE078A0B1E078042811D0AF
:104CD000E07828280ED0E07848280BD0E078142817
:104CE00008D0E078102805D0E0781C2802D0E078C1
:104CF000182800D103E0B321A8A0FBF7C9FA0020CF
:104D000010B9208800B103E0B421A4A0FBF7C0FAD9
:104D1000E07800F00F09E07810F0100F10D0A078C4
:104D2000012805D0A078022802D0A078032800D15D
:104D300003E0BB2199A0FBF7ABFAA07840EA090990
:104D4000207838B3D5F8008000261FE0012000FA53
:104D500006F7208800EA070ABA4516D1B7000F20E7
:104D600000FA07FB28EA0B0809FA07F040EA0808EE
:104D7000E078282803D10120B040686105E0E078A0
:104D8000482802D10120B0402861761C082EDDD3CE
:104D9000C5F800802088FF282BDDD5F80480002688
:104DA00023E006F10800012101FA00F7208800EA5B
:104DB000070ABA4518D1B7000F2000FA07FB28EA06
:104DC0000B0809FA07F040EA0808E078282803D120
:104DD00006F1080081406961E078482804D106F1B5
:104DE0000800012181402961761C082ED9D3C5F81D
:104DF0000480BDE8F09F4FF6FF71018002218170B1
:104E00000421C170704770B505460C4600265C4809
:104E1000854211D05B4885420ED05B4885420BD05D
:104E20005A48854208D05A48854205D0594885429B
:104E300002D05948854200D104E04FF48F7157A049
:104E4000FBF726FA012C25D0022C23D0042C21D0EC
:104E5000082C1FD0102C1DD0202C1BD0402C19D07A
:104E6000802C17D0B4F5807F14D0B4F5007F11D01A
:104E7000B4F5806F0ED0B4F5006F0BD0B4F5805F41
:104E800008D0B4F5005F05D0B4F5804F02D0B4F57A
:104E9000004F00D104E040F21F1140A0FBF7F8F9E9
:104EA000A868204201D0012600E00026304670BDEF
:104EB00010B504463248844211D0324884420ED0A4
:104EC000314884420BD03148844208D03048844273
:104ED00005D03048844202D02F48844200D104E0FB
:104EE0004FF49A712DA0FBF7D3F9A06880B210BDE2
:104EF00070B505460C4600262148854211D0214850
:104F000085420ED0204885420BD02048854208D0EB
:104F10001F48854205D01F48854202D01E48854261
:104F200000D104E04FF4A2711CA0FBF7B1F9012CF1
:104F300025D0022C23D0042C21D0082C1FD0102CDB
:104F40001DD0202C1BD0402C19D0802C17D0B4F5AC
:104F5000807F14D0B4F5007F11D0B4F5806F0ED0EF
:104F6000B4F5006F0BD0B4F5805F08D0B4F5005FE6
:104F700005D0B4F5804F02D0B4F5004F2CD131E00C
:104F800000080140000C01400010014000140140E5
:104F900000180140001C0140002001404C69627271
:104FA00061726965735C53544D3332463130785FBA
:104FB0005374645065726970685F44726976657293
:104FC0005C7372635C73746D3332663130785F6723
:104FD00070696F2E6300000040F24511AFF244008B
:104FE000FBF756F9E868204201D0012600E00026D0
:104FF000304670BD10B50446FE48844211D0FE48CC
:1050000084420ED0FD4884420BD0FD48844208D033
:10501000FC48844205D0FC48844202D0FB488442CC
:1050200000D105E04FF4AD71AFF29000FBF730F91D
:10503000E06880B210BD70B504460D46ED4884426C
:1050400011D0ED4884420ED0EC4884420BD0EC489D
:10505000844208D0EB48844205D0EB48844202D019
:10506000EA48844200D105E040F26911AFF2D40071
:10507000FBF70EF9002008B905B105E04FF4B57152
:10508000AFF2E800FBF704F9256170BD70B5044686
:105090000D46D848844211D0D74884420ED0D74814
:1050A00084420BD0D648844208D0D648844205D0EA
:1050B000D548844202D0D548844200D105E040F270
:1050C0007911AFF22810FBF7E3F8002008B905B119
:1050D00005E04FF4BD71AFF23C10FBF7D9F8656104
:1050E00070BD70B505460C461646C248854211D0C3
:1050F000C14885420ED0C14885420BD0C048854288
:1051000008D0C048854205D0BF48854202D0BF487C
:10511000854200D105E040F28D11AFF28010FBF71F
:10512000B7F8012C25D0022C23D0042C21D0082C38
:105130001FD0102C1DD0202C1BD0402C19D0802C1F
:1051400017D0B4F5807F14D0B4F5007F11D0B4F53A
:10515000806F0ED0B4F5006F0BD0B4F5805F08D02F
:10516000B4F5005F05D0B4F5804F02D0B4F5004F20
:1051700000D105E04FF4C771AFF2E010FBF788F8FB
:105180000EB1012E00D105E040F28F11AFF2F41004
:10519000FBF77EF80EB12C6100E06C6170BD70B55C
:1051A00004460D469348844211D0934884420ED061
:1051B000924884420BD09248844208D0914884425D
:1051C00005D09148844202D09048844200D105E045
:1051D0004FF4D271AFF23C20FBF75AF8E56070BD96
:1051E00070B504460D464FF480368248844211D093
:1051F000814884420ED0814884420BD0804884424A
:1052000008D08048844205D07F48844202D07F483D
:10521000844200D105E040F2B511AFF28020FBF7E7
:1052200037F8002008B905B105E04FF4DB71AFF2A3
:105230009420FBF72DF82E43A661A561A661A6690F
:10524000A66970BD70B505460C4600263DB1012D1E
:1052500005D0022D03D0032D01D0042D00D105E08F
:105260004FF4E971AFF2CC20FBF712F8ECB1012C4E
:105270001BD0022C19D0032C17D0042C15D0052CD0
:1052800013D0062C11D0072C0FD0082C0DD0092CD0
:105290000BD00A2C09D00B2C07D00C2C05D00D2CD0
:1052A00003D00E2C01D00F2C00D105E040F2D31119
:1052B000AFF21830FAF7ECFF554806684FF68070E9
:1052C000064046EA051626435148066070BD10B5F3
:1052D00004460CB1012C00D105E04FF4F371AFF29C
:1052E0004430FAF7D5FF4B48C46110BD2DE9F047B3
:1052F00004460E460027B8460025A946012C77D063
:10530000022C75D0042C73D0082C71D0A4F5A010F9
:1053100010386DD020386BD0A4F5B010403867D06D
:10532000803865D03C48844262D03C4884425FD09B
:105330003B4884425CD03B48844259D03A4884423E
:1053400056D0B4F5805F53D0B4F5EA1F50D0B4F511
:10535000EB1F4DD0B4F5004F4AD03448844247D0BB
:10536000A4F50010801E7CD0801E7AD0001F78D05B
:10537000083876D0B4F1201F73D0303871D02C4863
:1053800084426ED02B4884426BD02B48844268D034
:105390002A48844265D02A48844262D0B4F5011F6D
:1053A0005FD0284884425CD0401C844259D0801C85
:1053B000844256D0001D844253D022480F3084428C
:1053C0004FD020481F3084424BD01E483F3084428B
:1053D00047D01C487F30844243D01A48FF30844273
:1053E0003FD0194884423CD01848844239D02FE03D
:1053F00037E0000000080140000C014000100140AF
:105400000014014000180140001C01400020014030
:1054100000000140000020420001180000021800B6
:105420000003180000081A00000C1A0001002000F8
:1054300000013000000230000004300000112000A4
:105440000020200001000080000200800004008095
:105450006348844205D06348844202D06248844253
:1054600000D105E040F22A21AFF2D040FAF710FF58
:105470000EB1012E00D105E040F22B21AFF2E44045
:10548000FAF706FF04F00040B0F1004F02D1574890
:10549000C56901E055484568C4F30349A7B204F45F
:1054A0004010B0F5401F08D125F070654F484068A6
:1054B00020F070604D49486013E004F48010B0F5AE
:1054C000801F07D1032000FA09F825EA080545F0F6
:1054D000706506E0600D000107FA00F0854345F0B5
:1054E000706526B1600D010107FA01F0054304F073
:1054F0000040B0F1004F02D13C48C56101E03B489B
:105500004560BDE8F08770B505460C4600265DB1E4
:10551000012D09D0022D07D0032D05D0042D03D075
:10552000052D01D0062D00D105E040F26521AFF236
:105530009450FAF7ADFEECB1012C1BD0022C19D01F
:10554000032C17D0042C15D0052C13D0062C11D009
:10555000072C0FD0082C0DD0092C0BD00A2C09D009
:105560000B2C07D00C2C05D00D2C03D00E2C01D009
:105570000F2C00D105E040F26621AFF2E050FAF7BF
:1055800087FEA007010F0F2000FA01F61748083028
:10559000A11050F82100B04314490831A21041F87D
:1055A00022000846A11050F82100A107090F05FAB2
:1055B00001F108430D490831A21041F8220070BDE5
:1055C00010B504460CB1012C00D105E04FF41E715A
:1055D000AFF23860FAF75CFE0548046010BD0000C9
:1055E00000080080001000800020008000000140C2
:1055F000DC00204210B50446FE4884420BD0FE4831
:10560000844208D0FD48844205D0FD48844202D03F
:10561000FC48844200D103E08521FBA0FAF738FE64
:10562000F448844209D101218803FEF79AFB002146
:105630004FF48040FEF795FB32E0EF48844209D1F9
:1056400001214804FEF7B6FB00214FF40030FEF7BD
:10565000B1FB25E0E948844209D101218804FEF725
:10566000A9FB00214FF48020FEF7A4FB18E0E448DA
:10567000844209D10121C804FEF79CFB00214FF4AC
:105680000020FEF797FB0BE0DE48844208D10121A1
:105690000805FEF78FFB00214FF48010FEF78AFB10
:1056A00010BD2DE9F04786B005460C460026B246EF
:1056B00000BFB1460027CF4885420BD0CE48854277
:1056C00008D0CE48854205D0CD48854202D0CD488D
:1056D000854200D103E0B821CBA0FAF7D9FD2068BC
:1056E00020B1D8492068884200D203E0B921C6A081
:1056F000FAF7CEFDA08818B1A088B0F5805F00D180
:1057000003E0BA21C0A0FAF7C3FDE08858B1E088F1
:10571000B0F5805F07D0E088B0F5005F03D0E08887
:10572000B0F5405F00D103E0BB21B7A0FAF7B0FDB0
:10573000208938B12089B0F5806F03D02089B0F579
:10574000C06F00D103E0BC21AFA0FAF7A1FD6089D2
:105750004FF6F371084202D1608900B103E0BD2128
:10576000A9A0FAF795FDA08958B1A089B0F5807F6E
:1057700007D0A089B0F5007F03D0A089B0F5407FA5
:1057800000D103E0BE21A0A0FAF782FDA08968B194
:105790009848854205D09848854202D0974885426E
:1057A00000D103E0C22198A0FAF772FD2F462E8A9D
:1057B0004CF6FF700640E08806432E82AE894EF616
:1057C000F3100640A08821890843618908430643F5
:1057D000AE81AE8A4FF6FF400640A0890643AE82F6
:1057E00001A8FEF7D9F98348874202D1DDF810A05D
:1057F00001E0DDF80CA0A88910F4004F08D00AEBF6
:10580000CA0000EB0A1021684900B0FBF1F807E07C
:105810000AEBCA0000EB0A1021688900B0FBF1F81E
:105820006420B8FBF0F006013009642101FB108907
:10583000A88910F4004F08D0322000EBC900B0FB5B
:10584000F1F000F00700064308E0322000EB0910F9
:105850006421B0FBF1F000F00F0006432E8106B08A
:10586000BDE8F0874FF41651016000218180C180AE
:1058700001810C21418100218181704770B505466D
:105880000C4600265B48854205D05B48854202D025
:105890005A48854200D104E04FF499715AA0FAF7B2
:1058A000F7FC208818B12088B0F5006F00D104E023
:1058B00040F2331154A0FAF7EBFC608818B160880D
:1058C000B0F5806F00D104E04FF49A714EA0FAF762
:1058D000DFFCA08818B1A088B0F5007F00D104E0FB
:1058E00040F2351148A0FAF7D3FCE08818B1E088FF
:1058F000B0F5807F00D104E04FF49B7142A0FAF72D
:10590000C7FC2E8A4FF2FF000640208861880843BA
:10591000A1880843E188084306432E8270BD002118
:10592000018041808180C180704770B504460D467A
:10593000304884420BD03048844208D02F488442FB
:1059400005D02F48844202D02E48844200D104E082
:105950004FF4B1712CA0FAF79BFC0DB1012D00D1D1
:1059600004E040F2631128A0FAF792FC25B1A08967
:1059700040F40050A08104E0A0894DF6FF7108407A
:10598000A08170BD2DE9F04705460C4617464FF043
:105990000008C246C1460026164885420BD016486C
:1059A000854208D01548854205D01548854202D069
:1059B0001448854200D104E040F2891112A0FAF7A0
:1059C00067FC282C43D0A4F5E06027383FD0A4F52D
:1059D000C06026383BD0A4F5A060253837D0A4F5A8
:1059E0008060243833D0A4F5006046382FD0B0F55D
:1059F000927029E000380140004400400048004017
:105A0000004C0040005000404C6962726172696550
:105A1000735C53544D3332463130785F5374645065
:105A200065726970685F4472697665725C737263EF
:105A30005C73746D3332663130785F757361727484
:105A40002E63000021AA440001D0602C00D105E0A3
:105A50004FF4C571AFF25000FAF71AFC0FB1012FE5
:105A600000D105E040F28B11AFF26400FAF710FCB0
:105A7000A4F510606A380FD1F948854205D0F9487D
:105A8000854202D0F848854200D105E040F28F11EE
:105A9000AFF28C00FAF7FCFB2E46C4F3421804F078
:105AA0001F0A012000FA0AF9B8F1010F01D10C36E2
:105AB00005E0B8F1020F01D1103600E0143627B12D
:105AC000306840EA0900306003E0306820EA0900ED
:105AD0003060BDE8F08770B504460D461646E048D4
